:020000040800F2
:10000000580B00209D010008371B000867180008E6
:10001000351B0008EB020008FD2600080000000068
:10002000000000000000000000000000FD200008AB
:10003000ED02000800000000491E0008FF20000833
:10004000B7010008B7010008B7010008B7010008B0
:10005000B7010008B7010008B7010008B7010008A0
:10006000B7010008B7010008B7010008B701000890
:10007000B7010008B7010008B7010008B701000880
:10008000B7010008B7010008B7010008B701000870
:10009000B7010008B7010008B7010008B701000860
:1000A000B7010008B7010008B7010008B701000850
:1000B000B7010008B7010008B7010008B701000840
:1000C000B7010008B7010008B7010008B701000830
:1000D000B7010008F1260008B7010008B7010008C1
:1000E000B7010008B7010008B7010008B701000810
:1000F000B7010008B7010008B7010008B701000800
:10010000B7010008B7010008B7010008B7010008EF
:10011000B7010008B7010008B7010008B7010008DF
:10012000B7010008B7010008B7010008B7010008CF
:10013000B7010008B7010008B7010008B7010008BF
:10014000B7010008B7010008B7010008B7010008AF
:10015000B7010008B7010008B7010008B70100089F
:10016000B7010008B7010008B7010008B70100088F
:10017000B7010008B7010008B7010008000000003F
:10018000B7010008B7010008DFF80CD000F06CF8E8
:1001900000480047BD270008580B0020064880474C
:1001A00006480047FEE7FEE7FEE7FEE7FEE7FEE75C
:1001B000FEE7FEE7FEE7FEE7992100088901000857
:1001C0002DE9F05F0546002092469B46884606468C
:1001D000814640241BE0284641464746224600F01F
:1001E00032F853465A46C01A914110D31146184668
:1001F000224600F019F82D1A67EB01084F462246F7
:100200000120002100F010F817EB00094E41201EDC
:10021000A4F10104DFDC484631462A46434600F09B
:1002200000B830BCBDE8C09F202A04DB203A00FAA9
:1002300002F1002070479140C2F1200320FA03F33D
:10024000194390407047202A04DB203A21FA02F03B
:100250000021704721FA02F3D040C2F12002914000
:100260000843194670470000064C074D06E0E06859
:1002700040F0010394E8070098471034AC42F6D3ED
:10028000FFF786FFF04800081049000870B58D1888
:1002900010F8014B14F0030201D110F8012B2311C7
:1002A00006D110F8013B03E010F8016B01F8016B77
:1002B000521EF9D1ABB110F8012B04F00C048A1ACC
:1002C0000C2C03D0A2EB84129B1C08E010F8014B0D
:1002D000A2EB0422F8E712F8014B01F8014B5B1E78
:1002E000F9D5A942D4D3002070BDFEE7704710B500
:1002F00090F825100024022903D00421C1630124B1
:1003000018E001680A6822F00E020A6001680A68B3
:1003100022F001020A6090F84420036C012101FAE6
:1003200002F25A6080F82510002180F82410816BB9
:1003300001B18847204610BD70B5044600F0F0F8C2
:100340000546601C00D0641C00F0EAF8401BA04287
:10035000FAD370BD2DE9F84FDFF898B100234FF0C4
:10036000010C4FF0030A4FF00F090BF1040EB9E036
:100370000CFA03F4224070D04D68022D01D0122DEA
:100380000ED1DD0800EB8508D8F820505E07F70E87
:1003900009FA07F6B5430E69BE402E43C8F820603F
:1003A00007685E0091F804800AFA06F508F0030871
:1003B000AF4308FA06F848EA0708C0F800804F681B
:1003C000012F05D0022F03D0112F01D0122F13D1EE
:1003D000D0F80880CF6828EA0508B74047EA080740
:1003E0008760D0F804800F7928EA0408C7F3001763
:1003F0009F4047EA08074760D1F804806FEA080782
:10040000BF0706D1C76AA743C8F3C0049C403C435A
:10041000C462C468AC438D68B5402543C5604C6870
:10042000E4005ED5344C256E45F001052566246E4A
:1004300023F0030504F001040094304C2E19B46835
:100440009D072F0F09FA07F5AC43B0F1904F05D087
:100450002B4DA84204D101251CE042E0002519E003
:10046000284DA84201D1022514E0274DA84201D110
:1004700003250FE0254DA84201D104250AE0244DB3
:10048000A84201D1052505E0224DA84201D106254B
:1004900000E00725BD402543B560DBF800405D4620
:1004A0004E689443F60300D514432C60DEF80040F8
:1004B00075464E689443B60300D514432C600D4D29
:1004C00008352C684E689443F60200D514432C601E
:1004D000084D0C352C684E689443B60200D5144381
:1004E0002C605B1C0A6832FA03F57FF441AF00F020
:1004F00013B8000000040140001002400000014059
:100500000004004800080048000C004800100048A3
:10051000001400480018004818BCBDE8E08F000037
:1005200001480068704700000800002090F8412052
:10053000202A24D190F84020012A20D0012280F8DE
:100540004020242280F841200268136823F0010330
:1005500013600268136823F4805313600268136801
:100560000B43136001680A6842F001020A6020210F
:1005700080F84110002180F84010084670470220A2
:10058000704790F84120202A22D190F84020012A7B
:100590001ED0012280F84020242280F841200268E9
:1005A000136823F0010313600268136823F4706377
:1005B00043EA0121116001680A6842F001020A6001
:1005C000202180F84110002180F840100846704733
:1005D0000220704770B5040004D094F84100002553
:1005E00010B106E0012070BD84F84050204600F0B4
:1005F000E7F8242084F841002068016821F0010117
:1006000001606068216820F070600861206881687E
:1006100021F400418160E0680128A06807D040F41F
:10062000044021688860E068022803D006E040F4B6
:100630000040F6E721684FF4006048602068416898
:10064000114A114341602068C16821F40041C16032
:10065000D4E904010843A16940EA01202168C86087
:10066000D4E907010843216808602068016841F067
:10067000010101606564202084F84100256384F84D
:100680004250002070BD0000008000022DE9F84FAC
:10069000044690F84100DDF828A01F4690468B469E
:1006A00020287CD194F8400001287FD0012084F8D4
:1006B0004000FFF735FF0646012200901923D103C1
:1006C000204601F037F938BB212084F84100102082
:1006D00084F8420000256564C4F82480678565635A
:1006E000618D3348FF274FF080784FF00079FF2964
:1006F00003D927853A46009031E0618D218500902D
:1007000032E05946204601F0FFF831E001F062F98D
:1007100018B1606C042847D018E0606A411C61621F
:10072000216800788862608D401E6085208D401EA3
:100730000004000C20851BD1608DC8B153460022F7
:1007400080212046009601F0F5F810B1032000F05A
:1007500033B8608DFF2804D927853A460095434673
:10076000CFE7608D2085009594F828204B46C8E798
:10077000608D3246002851462046C7D101F003F96A
:100780000028C6D120682021C16120684368094A39
:100790001340436084F8411084F8425000E005E0C3
:1007A00084F840500020D2E70120D0E70220CEE7B5
:1007B0000020008000E800FE18BCBDE8E08F0000CB
:1007C00000B500680E4987B0884216D1C02000905D
:1007D0001220019001200290032003900420049035
:1007E00069460848FFF7B6FD0748816D41F40011DE
:1007F0008165806D00F40010059007B000BD000019
:100800000054004000040048001002400248016803
:10081000491C0160704700000800002010B503204B
:1008200000F088F8002000F005F800F017F800202C
:1008300010BD000010B5044607484FF47A710068F7
:10084000B0FBF1F000F01FFE00222146501E00F028
:1008500051F8002010BD0000000000201E4808B51F
:10086000016E41F001010166016E01F0010100918C
:10087000816D41F080518165806D00F08050009065
:10088000032000F057F8002211466FF00B0000F033
:1008900031F8002211466FF00A0000F02BF8002218
:1008A00011466FF0090000F025F800221146501F94
:1008B00000F020F800221146101F00F01BF8002263
:1008C0001146901E00F016F80022BDE808401146BF
:1008D000501E00F00FB800000010024000F01F0290
:1008E000012191404009800000F1E020C0F8001192
:1008F00070470000F0B40E4B1B680C46C3F3022394
:10090000C3F10705042D00D90425191D072901D2BB
:10091000002300E0DB1E012606FA05F1491E2140F6
:1009200099409E40761E16403143F0BC01F004B958
:100930000CED00E0064900F0070208684FF6FF03DF
:10094000184040EA0220034A104308607047000044
:100950000CED00E00000FA051549B0F5007F0868CD
:10096000C0F3412009D0022805D0086820F4C060F7
:1009700040F480600860002070470128FBD00868C0
:1009800020F4C06040F4007008600A480A4A006819
:10099000B0FBF2F03222504300E0401E10B14A6931
:1009A0005205FAD448694005E5D503207047000098
:1009B000007000400000002040420F000248006824
:1009C00000F4C06070470000007000402DE9F84F4F
:1009D000044600270088E54D3E46010504F1200B42
:1009E0001DD5606E78B1B0F5800F11D0B0F5000F55
:1009F00004D0B0F5400F22D001270FE0E86840F4A2
:100A00008030E8601BE00021201D01F01FFA03E0A8
:100A10000021584601F0B0FA070010D03E46208869
:100A2000C00426D5A06EC0B1B0F1807F1AD0B0F15D
:100A3000007F0DD0B0F1407F19D0012718E0D5F824
:100A40008800616E20F440000843C5F88800E6E79E
:100A5000E86840F48030E86009E00021201D01F0E2
:100A6000F5F903E00021584601F086FA0746F7B190
:100A70003E46206880033AD5A86D4FF00008C000BC
:100A800009D4A86D40F08050A865A86D4FF001080A
:100A900000F080500090DFF8D8A2DAF8001041F49E
:100AA0008071CAF80010FFF73BFD814610E0D5F8D1
:100AB0008800A16E20F040700843C5F88800D8E790
:100AC000FFF72EFDA0EB0900022801D9032705E05E
:100AD000DAF80000C005F3D5002F7CD04FEA0706F6
:100AE000B8F1000F03D0A86D20F08050A8652078E1
:100AF000C00707D0D5F88800A16B20F00300084399
:100B0000C5F888002078800707D5D5F88800E16B04
:100B100020F00C000843C5F888002078400707D56E
:100B2000D5F88800216C20F030000843C5F8880013
:100B30002078000707D5D5F88800616C20F0C00048
:100B40000843C5F888002078C00607D5D5F8880086
:100B5000A16C20F440700843C5F888002078800616
:100B600007D5D5F88800E16C20F440600843C5F84B
:100B700088002088800507D5D5F88800E16D20F42D
:100B800040200843C5F888002088400507D5D5F8DF
:100B90008800216E20F440100843C5F888002078B2
:100BA000400607D5D5F88800216D20F44050084351
:100BB000C5F888002078000607D5D5F88800616D53
:100BC00020F440400843C5F888002088C00509D5B6
:100BD000D5F8880000E01CE0A16D20F44030084307
:100BE000C5F8880020884FF0006780044FF08068C7
:100BF0004FD5D5F88800E16E20F040600843C5F875
:100C00008800E06EB8423CD1E86840F48010E860AB
:100C10003FE0D5F8900010F4407015D0D4F884105F
:100C2000814211D0D5F89000D5F8901020F4407092
:100C300041F48031C5F89010D5F8901021F480313E
:100C4000C5F89010C5F89000C00710D0FFF768FCF9
:100C5000074641F2883906E0FFF762FCC11B4945AF
:100C600001D903263CE7D5F890008007F4D5D5F8E4
:100C70009000D4F8841020F440700843C5F8900028
:100C80002EE7404505D10121201D01F0DFF800B11C
:100C900006462068000317D5D5F88800216F20F09C
:100CA00040600843C5F88800206FB84204D1E86866
:100CB00040F48010E86007E0404505D10121201D87
:100CC00001F0C4F800B106462068400317D5D5F8F6
:100CD0008800616F20F040600843C5F88800606FAD
:100CE000B84204D1E86840F48010E86007E040456D
:100CF00005D10121201D01F0A9F800B10646208888
:100D000040041AD5D5F88800A16F20F04050084360
:100D1000C5F88800A06FB0F1805F03D0B0F1005F2C
:100D200005D00AE00221201D01F090F803E0022125
:100D3000584601F021F900B106462088000407D585
:100D4000D5F88800E16F20F080400843C5F888009E
:100D50002068C00307D555F8880FD4F8801020F01C
:100D6000004008432860304600F004B800100240FC
:100D70000070004018BCBDE8E08F00002DE9F0478E
:100D8000DFF8608105460E46D8F8000000F0070045
:100D9000B0420CD2D8F8001021F007013143C8F856
:100DA0000010D8F8000000F00700B04275D1287894
:100DB0004D4CC00757D06868032818D0022819D0B6
:100DC0002168D0B14905002967DAA16821F0030143
:100DD0000143A160FFF7A4FB6968074641F2883030
:100DE000032913D002291FD0814651B336E0216870
:100DF0008901E8E721688903E5E78907E3E700BFA0
:100E0000FFF78EFBC11B494501D924E08146A0684C
:100E1000C0F381000328F3D125E000BFFFF780FB7A
:100E2000C11B494501D916E08146A068C0F3810085
:100E30000228F3D117E000BFFFF772FBC11B494541
:100E400009D8A06810F00C0FF6D10CE0FFF768FB92
:100E5000C11B494502D90320BDE8F087A068C0F353
:100E600081000128F2D12878800705D5A068A968FB
:100E700020F0F0000843A060D8F80010404601F0D0
:100E80000701B1420BD9016821F00701314301602C
:100E9000006800F00700B04201D00120DCE72878AC
:100EA000400705D5A068E96820F4E0600843A06029
:100EB0002878000706D5A068296920F4605040EA28
:100EC000C100A06000F03CF8A168084AC1F303111A
:100ED000515CC840064908600020FFF7ABFC0020C9
:100EE000BAE700000020024000100240D0280008AD
:100EF000000000200148006870470000000000204A
:100F00000448054900688968044AC1F30221515C1C
:100F1000C84070470000002000100240102900085F
:100F20000448054900688968044AC1F3C221515C3C
:100F3000C84070470000002000100240102900083F
:100F400030B52D49002318468A682C4C12F00C0F3E
:100F50004FEA640514D08A68C2F38102032A04D1DF
:100F6000CA6802F00302012A0AD08A68C2F3810229
:100F7000012A19D08A68C2F38102022A16D016E02B
:100F80000A68120704D4D1F89420C2F3032202E0C5
:100F90000A68C2F303121A4B53F822308A6812F01F
:100FA0000C0F04D1184602E0204600E028468A686B
:100FB000C2F38102032A1DD1C868CA6800F0030089
:100FC000C2F30212521C022804D0032805D0B3FB3E
:100FD000F2F004E0B4FBF2F001E0B5FBF2F0CA6815
:100FE000C968C2F306225043C1F34161491C49005C
:100FF000B0FBF1F030BD0000001002400024F4000E
:10100000E02800082DE9F84304460078FE4DC006AC
:101010005DD5A86810F00C0F0AD0A06900282868D8
:1010200071D040F001002860FFF77AFA064654E0DC
:101030002868800702D5A06900287DD0216A286829
:10104000000703D5286800F0F00004E0D5F894000C
:10105000F02202EA1010814216D9084601F010F879
:10106000002869D1286840F0080028602868216AB3
:1010700020F0F000084328606868E16920F47F40B0
:1010800040EA0120686015E0286840F00800286008
:101090002868216A20F0F000084328606868E16948
:1010A00020F47F4040EA01206860206A00F0E8FFF9
:1010B0000028D6D1FFF744FFA968D44AC1F3031131
:1010C000515CC840D24908600020FFF7B3FB29E01B
:1010D000FFF726FA801B02287ED828688007F7D5FC
:1010E000286840F0080028602868216A20F0F00095
:1010F000084328606868E16920F47F4040EA0120E5
:1011000068600FE0FFE720F001002860FFF708FAB1
:10111000064604E0FFF704FA801B0228DCD82868A2
:101120008007F7D42078C0074AD0A868C0F38100B0
:1011300002281FD0A86800E098E0C0F381000328CF
:1011400003D1E868C043800714D06068B0F5803FE1
:1011500017D0B0F5A02F286817D020F48030286071
:10116000286820F4802028606068E0B1FFF7D8F993
:10117000064614E02868800322D56068002875D0F0
:101180001EE0286840F48030EDE740F480202860BD
:10119000F7E700BFFFF7C4F9801B64289CD82868D4
:1011A0008003F7D50CE0FFF7BBF9064605E000BF6A
:1011B000FFF7B6F9801B64288ED828688003F7D41F
:1011C0002078800742D5A868C0F38100012816D096
:1011D000A868C0F3810000E0A9E0032804D1E86812
:1011E00000F0030002280AD0E068002828681DD01B
:1011F00040F480702860FFF793F906460BE02868FA
:1012000040050BD5E0680028B9D007E0FFF788F962
:10121000801B0228C2D828684005F7D56868217C61
:1012200020F0F85040EA016068600FE020F4807020
:101230002860FFF775F9064605E000BFFFF770F973
:10124000801B022873D828684005F7D4207800074F
:1012500029D560690028D5F8940013D040F001002A
:10126000C5F89400FFF75CF9064606E0FBE000BF16
:10127000FFF756F9801B022859D8D5F8940080074B
:10128000F6D510E020F00100C5F89400FFF748F90A
:10129000064604E0FFF744F9801B022847D8D5F83A
:1012A00094008007F6D42078400763D5A86D002607
:1012B000C00008D4A86D40F08050A865A86D012634
:1012C00000F08050009053480168C90511D40168AE
:1012D000804641F480710160FFF722F9074604E07F
:1012E000FFF71EF9C01B022821D8D8F80000C0055E
:1012F000F6D5A068012815D00528D5F8900017D09C
:1013000020F00100C5F89000D5F8900020F004000E
:10131000C5F89000A06841F28838C8B1FFF700F91D
:10132000074610E0D5F8900040F00100F0E777E0C4
:1013300040F00400C5F89000F4E700BFFFF7F0F8B4
:10134000C11B41456CD8D5F890008007F6D50CE05C
:10135000FFF7E6F8074604E0FFF7E2F8C11B414556
:1013600079D8D5F890008007F6D41EB1A86D20F08A
:101370008050A865A06AE0B3A968C1F38101032980
:1013800072D00228286820F08070286011D0286868
:10139000000106D42868800003D4E86820F0030028
:1013A000E860E8681C490840E860FFF7B9F80446BF
:1013B00054E0FFF7B5F8064605E000BFFFF7B0F8C8
:1013C000801B022847D828688001F7D4206BE16A87
:1013D000000110380843616BA26B0902120941EA4F
:1013E00042410843A18F0D4A490802EB415108438D
:1013F00000E036E094F840104908120102EB416128
:101400000843E86028680CE000100240D02800087B
:101410000000002000700040FFFFEEFE0000E0FF33
:1014200019E040F080702860E86840F08070E86063
:10143000FFF776F8044604E0FFF772F8001B022875
:1014400009D828688001F7D50BE000BFFFF768F8DE
:10145000001B022802D90320BDE8F8832868800118
:10146000F4D40020F8E7FFE70120F5E74FF0E02192
:101470000428086903D020F004000861704740F098
:101480000400FAE7704710B5401EB0F1807F01D329
:10149000012010BD4FF0E02460610F21601700F0C3
:1014A0004BFB0020A06107202061002010BD10B57B
:1014B000FFF7E8FF10BD7047704700002DE9F041CD
:1014C00002680446D0691168936810F00F0F4FF05E
:1014D00000055BD003F0010601F49077374369D033
:1014E000C70707D0CF0505D501271762626F42F005
:1014F00001026267820708D5DA0706D02768022250
:101500003A62626F42F004026267420708D5DA0766
:1015100006D0236804221A62626F42F002026267F8
:1015200002070AD501F02002324306D023680822C0
:101530001A62626F42F008026267626F002A32D05C
:10154000800605D5880603D5216E09B12046884757
:10155000606F000703D420688068400625D52046C8
:1015600000F0D8FE20688168490619D5816821F00D
:1015700040018160E06E98B122498163E06EFEF720
:10158000B6FE00280FD0E06E816B06E0860611D50E
:101590008E060FD5216E23E02046BDE8F0410847B6
:1015A0002046FFF789FFBDE8F0812046FFF784FF62
:1015B0006567F8E7C7024FF020060CD55B020AD535
:1015C000F003106284F8716084F872602046BDE810
:1015D000F041FFF770BF030605D50B0603D5616E1A
:1015E0000029D9D1DFE74006DDD54806DBD51168F3
:1015F000204621F04001116084F87160656600F0BA
:1016000031F9D0E70123000810B5040003D094F8A5
:10161000710010B107E0012010BD002084F87000B7
:10162000204600F027F8242084F871002068016823
:1016300021F001010160204600F0D8FE0128EBD026
:10164000606A10B1204600F0C9FD2068416821F4AD
:10165000904141602068816821F02A018160206802
:10166000016841F0010101602046BDE8104000F032
:1016700019BE000000B50068134987B0884220D128
:101680001248016E41F480410166006E694600F423
:10169000804005904FF4C06000900220019000202F
:1016A000029003200390072004904FF09040FEF733
:1016B00051FE002211462520FFF71CF92520FFF7D7
:1016C0000DF907B000BD00000038014000100240D5
:1016D00030B590F87230202B4AD1B1B1AAB190F850
:1016E0007030012B44D0012380F870304165A0F8A0
:1016F0005820A0F85A20002202661D038168FF23AB
:10170000A94207D1016911B10CE0012030BD40F2BE
:10171000FF110DE07F2419B1B1F1805F05D009E020
:10172000016901BBA0F85C3004E00169D9B13F2137
:10173000A0F85C104267222180F8721001688B6863
:1017400043F001038B608168A94201D1016969B14D
:101750000849016680F870200068016841F49071C2
:101760000160002030BDA0F85C40E3E70249F0E7EB
:10177000022030BD912300083523000810B5006811
:10178000094988420ED109496120FF2308700122CE
:10179000074800F00FF8012204490548FFF798FFB9
:1017A0000028F8D110BD00000038014004000020DE
:1017B000DC0600202DE9F843044690F871001F462E
:1017C00016460D4620284BD1C5B1BEB194F8700025
:1017D000012845D0012084F870004FF00008C4F8BB
:1017E0007480212084F87100FEF79AFEA4F85060FE
:1017F0008146A4F852604FF4805615E00120BDE800
:10180000F8838021204600F041FFD8B9A068B0429B
:1018100001D12069C0B115F8010B21680885B4F821
:101820005200401EA4F85200B4F852004B464FF04C
:10183000000200970028E4D14FF04001204600F05C
:1018400025FF30B10320DAE735F8020BC0F30800BA
:10185000E3E7202084F8710084F870800020CEE750
:101860000220CCE77047FEE701688A69D2439207FD
:1018700001D400228A6200688169C943C90703D084
:10188000816941F001018161704700002DE9F0415B
:101890000446006890460E468069C043C0062ED4B8
:1018A0000025202720688069C043800611D5701C60
:1018B000F8D02EB1FEF734FEA0EB0800B042F1D90B
:1018C00084F8417084F8425084F840500320BDE809
:1018D000F08121681020C8612068C7612046FFF7A9
:1018E000C3FF54F8440B4168064A1140416004208C
:1018F00044F820096777A57725770120E7E70020DE
:10190000E5E7000000E800FEF0B50568059C6868A2
:101910004FF48066064FC1F3090106EA545641EAC6
:1019200002413E431943B043214308436860F0BD80
:10193000FF63FF032DE9F0411D4617460E4604469E
:10194000DDF8188013E0681C11D02DB1FEF7E8FD1A
:10195000A0EB0800A8420AD9202084F8410000200A
:1019600084F8420084F840000320BDE8F08120683C
:10197000806936EA000004D00020B842E3D000209D
:10198000F3E70120F9E770B516460D4604461AE064
:10199000324629462046FFF779FF08B1012070BD85
:1019A00025B1FEF7BDFD801BA8420CD954F8440FA9
:1019B00040F0200044F80409202060700020A0704E
:1019C0002070032070BD20688069C0438006DFD48A
:1019D000002070BD70B516460D4604461CE0324628
:1019E00029462046FFF752FF08B1012070BD681C50
:1019F00012D025B1FEF794FD801BA8420CD954F8F3
:101A0000440F40F0200044F80409202060700020BA
:101A1000A0702070032070BD20688069C0438007DB
:101A2000DDD4002070BD00000D4808B5C16C41F048
:101A30008001C164C16C01F080010091C16C41F072
:101A40000201C164C16C01F002010091C16C41F05E
:101A50000101C164C06C00F00100009008BD0000ED
:101A600000100240164810B5144901601549416044
:101A700000210122C0E90212016141618161C1615D
:101A80000162FEF7A7FD18B142210FA000F060FE31
:101A900000210B48FEF74AFD18B149210AA000F0C9
:101AA00057FE00210648FEF76CFD002805D0BDE872
:101AB0001040502104A000F04BBE10BD0054004067
:101AC00090060020EC9C90104253505C4949435CC6
:101AD0005372635C6932632E630000000E4810B5D8
:101AE0000C4901604FF4E1314160002181600C221A
:101AF000C160C0E904128161C16101624162FFF706
:101B000083FD002805D0BDE81040442103A000F06B
:101B10001FBE10BD00380140DC0600204253505C5F
:101B200055534152545C5372635C75736172742EE9
:101B300063000000FEE770470907090E002806DA77
:101B400000F00F0000F1E02080F8141D704700F154
:101B5000E02080F80014704770B5002404F1B00054
:101B6000C0B2002100F06BF90021084600F067F9CF
:101B70000021102000F063F900250121002000F071
:101B80005EF96D1CEDB2802DF7D3641CE4B2082C15
:101B9000E4D370BD10B50021AE2000F050F9002153
:101BA000084600F04CF90021102000F048F900210F
:101BB000402000F044F90021B02000F040F900215D
:101BC000812000F03CF90021FF2000F038F90021CD
:101BD000A12000F034F90021A62000F030F9002106
:101BE000A82000F02CF900213F2000F028F9002166
:101BF000C82000F024F90021D32000F020F90021B2
:101C0000084600F01CF90021D52000F018F9002149
:101C1000802000F014F90021D82000F010F90021F4
:101C2000052000F00CF90021D92000F008F900216E
:101C3000F12000F004F90021DA2000F000F9002181
:101C4000122000F0FCF80021DB2000F0F8F8002161
:101C5000302000F0F4F800218D2000F0F0F8002191
:101C6000142000F0ECF80021BDE81040AF2000F097
:101C7000E6B810B50446B031C8B2002100F0DFF874
:101C8000102040EA1410002100F0D9F804F00F00F1
:101C9000BDE81040002100F0D2B800002DE9F0416D
:101CA000203A0D4680460026D7B2FFF7E2FF214CCE
:101CB00006EB87100121205C00F0C1F8761CF6B21B
:101CC000102EF5D3681CC1B24046FFF7D2FF0026A4
:101CD00006EB871020440121007C00F0B0F8761C50
:101CE000F6B2102EF4D3A81CC1B24046FFF7C1FFD4
:101CF0005FF0000606EB87102044012190F82000D9
:101D000000F09DF8761CF6B2102EF3D3ED1CE9B26C
:101D10004046FFF7AEFF002505EB87102044012168
:101D200090F8300000F08BF86D1CEDB2102DF3D35D
:101D3000BDE8F081303100082DE9F04115460E462E
:101D40000746FFF796FF0F48002400EB8515012199
:101D5000285D00F074F8641CE4B2102CF7D3761CF4
:101D6000F1B23846FFF785FF00242819012190F8C9
:101D7000200000F064F8641CE4B2102CF5D3BDE838
:101D8000F08100000C0000202DE9F041203A0024F1
:101D90000D468046D6B27F2803D900208D1C804690
:101DA000EDB2102B294610D0FFF763FF164906EB62
:101DB000460001EB40050121285D00F040F8641C5D
:101DC000E4B2062CF7D3BDE8F081FFF752FF0F4FC6
:101DD00004EB06100121385C00F031F8641CE4B219
:101DE000082CF5D36D1CE9B24046FFF742FF0024F2
:101DF00004EB061038440121007A00F020F8641C3E
:101E0000E4B2082CF4D3DEE718290008402B0008C0
:101E10002DE9F04117460E46044600250AE0F1B2CE
:101E2000E0B2FFF73BFF1034782C01DD0024B61C34
:101E30006D1CEDB27A5D002AF1D1BDE8F08109B1E7
:101E400000F072BC00F05CBC704700002DE9F0416E
:101E5000444C05468846E0680026810728680DD076
:101E6000E16801F00301814216D1A8B1E068696818
:101E7000C0F30210401C88420ED120E0012804D09B
:101E8000022805D0032807D108E02168890701E06E
:101E900021684905002907DB01265FE021688903E5
:101EA00002D421684903F5E7E1686A686FF00F031F
:101EB00021F0730103EB021211430143E16020683A
:101EC00020F080602060FEF72BFB074605E000BF96
:101ED000FEF726FBC01B022837D820680001F7D484
:101EE000B8F1000F18D0B8F1010F1ED0287D4FF0C7
:101EF0007E41400801EB4060A96840EA0120216969
:101F0000194A114008432061206840F08060206039
:101F1000FEF706FB07461AE0A868E968000209090F
:101F200040EA41402169114AEBE7288A10494008FC
:101F300001EB4050A96840EA012021690D4AE0E721
:101F4000FEF7EEFAC01B022801D9032606E020683E
:101F50000001F5D52069A969084320613046BDE834
:101F6000F081000000100240FF80FFF9FF80FDFFBC
:101F70000000E0FFFF809FFF2DE9F0413D4C064649
:101F80008846E0680025810730680DD0E16801F0DF
:101F90000301814216D1A8B1E0687168C0F3021054
:101FA000401C88420ED120E0012804D0022805D030
:101FB000032807D108E02168890701E02168490565
:101FC000002907DB012551E02168890302D421683B
:101FD0004903F5E7E16872686FF00F0321F07301C0
:101FE00003EB021211430143E160206820F08050AE
:101FF0002060FEF795FA074605E000BFFEF790FA6D
:10200000C01B022829D820688000F7D4B8F1000F3F
:1020100015D0307C4FF07E41400801EB4060B16844
:1020200040EA01206169144A114008436061206858
:1020300040F080502060FEF773FA07460FE0B0686A
:10204000F1680002090940EA414061690B4AEBE787
:10205000FEF766FAC01B022801D9032506E02068B6
:102060008000F5D560697169084360612846BDE864
:10207000F081000000100240FF80FFF9FF80FDFFAB
:10208000F8B51C4D06460024A86DC00002D5FEF729
:1020900095FC0DE0A86D40F08050A865A86D00F09B
:1020A00080500090FEF78AFCA96D21F08051A9654F
:1020B000B0F5007F04D0802E07D94FF003040AE06A
:1020C000802E08D9A02E01D804E001D1022402E01C
:1020D000702E00D101240848016821F00701214336
:1020E0000160006800F00700A04201D00120F8BDA7
:1020F0000020F8BD0010024000200240704710B5DB
:10210000FEF784FBBDE81040FFF7D1B910B5B8B0B9
:10211000102000900120002460210690CDE90741A5
:102120000221CDE90A100C9028200D900720CDE95E
:102130000E0168461091FEF765FF00B1FEE70F2023
:1021400033900320CDE934043694042133A8379426
:10215000FEF714FE00B1FEE740202594119011A86F
:10216000FEF734FC00B1FEE74FF40070FEF7F4FB1D
:1021700000B1FEE7FEF7BEFE4FF47A71B0FBF1F05E
:10218000FFF781F90420FFF771F900221146501E74
:10219000FEF7B0FB38B010BD0D48016841F4700186
:1021A00001600C48016841F001010160002181607B
:1021B0000268094B1A4002608214C260026822F46D
:1021C0008022026081610249C00380390860704743
:1021D00088ED00E000100240FFFFF6EA90F82410BE
:1021E000C90706D001684A68836A22F400321A439C
:1021F0004A6090F82410890706D501684A68C36AC6
:1022000022F480321A434A6090F82410490706D518
:1022100001684A68036B22F480221A434A6090F8EE
:102220002410090706D501684A68436B22F400426E
:102230001A434A6090F82410C90606D501688A68D6
:10224000836B22F480521A438A6090F82410890626
:1022500006D501688A68C36B22F400521A438A606B
:1022600090F82410490611D501684A68036C22F4DD
:1022700080121A434A60016CB1F5801F06D10168D3
:102280004A68436C22F4C0021A434A6090F8241052
:10229000090606D501684A68806C22F400220243D0
:1022A0004A607047F8B5002604464667FEF738F9DD
:1022B0000546206800686FF07E47000708D52B466A
:1022C00000224FF400112046009700F0DFF960B9BA
:1022D0002068006840070AD52B4600224FF4800191
:1022E0002046009700F0D2F908B10320F8BD202065
:1022F00084F8710084F8720084F870600020F8BDE2
:1023000010B5806A0021A0F85A10A0F85210FFF70B
:10231000D3F810BD01680A6822F490720A6001685F
:102320008A6822F001028A60202180F87210002160
:102330000166704710B5B0F85C2090F87230016803
:10234000222B04D0088B40F00800088310BD898C34
:10235000436D11401980416D891C4165B0F85A10D8
:10236000491E0904090CA0F85A10EFD101680A6847
:1023700022F490720A6001688A6822F001028A6081
:10238000202180F8721000210166FFF7F7F910BDD7
:1023900010B5B0F85C2090F872300168222B04D0A0
:1023A000088B40F00800088310BD898C1140426DF5
:1023B000531C43651170B0F85A10491E0904090CEA
:1023C000A0F85A10F0D101680A6822F490720A60ED
:1023D00001688A6822F001028A60202180F8721068
:1023E00000210166FFF7CAF910BD00002DE9F04198
:1023F0000446016880682369E6691843636910250B
:10240000002733431843954A0B68954E33400343E6
:102410000B6020684168E36821F440511943416032
:102420002168A069914201D0236A18438B6823F484
:10243000306303438B608B4B21688B4899420DD1ED
:10244000D0F8880010F0030006D001285AD00228E6
:1024500056D0032859D157E0012556E0834B9942C5
:102460000BD1D0F8880010F00C0047D0042849D0D8
:10247000082845D00C2848D146E07D4B99420BD125
:10248000D0F8880010F0300038D010283AD020283A
:1024900036D0302839D137E0764B99420BD1D0F87D
:1024A000880010F0C00029D040282BD0802827D0E9
:1024B000C0282AD128E0704B99420ED1D0F888006C
:1024C00010F440701AD0B0F5807F1BD0B0F5007FBB
:1024D00016D0B0F5407F18D116E0914215D1D0F852
:1024E000880010F4406009D0B0F5806F0AD0B0F5D4
:1024F000006F05D0B0F5406F07D105E0002504E07E
:10250000022502E0042500E008255C4B00264FF47C
:10251000004091423DD135B1022D07D0042D07D0A6
:10252000082D10D107E0FEF7EBFC03E0184602E0AF
:10253000FEF706FDA8B3626802EB4201814202D8B1
:10254000B0EB023F01D9012775E0DFF834815DB1BE
:10255000022D0CD0042D13D0082DF4D150082905DC
:10256000401846F1000105E0FEF7CAFC0AE05008F9
:102570004449F5E70023FDF723FEA0F5407156E03E
:10258000FEF7DEFC6268010E030250081818714164
:10259000F0E7E1694FF6EF7881422FD1092DD2D2D1
:1025A00000E048E0DFE805F0060920052305050501
:1025B0002600C8E7FEF7A4FC01E0FEF7B1FC4100ED
:1025C000D4F8040001EB5001B1FBF0F080B2A0F1AF
:1025D00010014145B7D84FF6F0710140C0F34200F9
:1025E00001432068C16026E027496068EAE7FEF7FA
:1025F000A7FCE4E74FF480316068E3E7092DA2D23D
:10260000DFE805F006091E052205050525009AE705
:10261000FEF776FC01E0FEF783FC0146606801EB03
:10262000500100BFB1FBF0F080B2A0F110014145B4
:1026300089D82168C860266638466666BDE8F0819C
:10264000606803EB5001EDE7FEF77AFCE5E76168AF
:1026500000EB5100B0FBF1F0E6E700000080004025
:10266000F369FFEF003801400010024000440040D1
:1026700000480040004C0040005000400024F4009E
:10268000FFFC0F00000024F40048E8012DE9F041B0
:10269000984617460E460446069D1DE0681C1BD052
:1026A0002DB1FDF73DFFA0EB0800A84214D920682A
:1026B000016821F4D07101602068816821F0010176
:1026C0008160202084F8710084F87200002084F872
:1026D00070000320BDE8F0812068C06936EA000080
:1026E00004D00020B842D9D00020F3E70120F9E758
:1026F0000148FEF7E3BE0000DC060020FEE7000014
:102700001CB5002101918DF8050064200090022382
:1027100001AA78210348FDF7B9FF0020FDF70CFE60
:102720001CBD0000900600201CB507A1022309680B
:1027300001918DF805001420009001AA782103482A
:10274000FDF7A4FF1CBD0000400000009006002023
:10275000FEE70000014A024900F013B8A52700086F
:102760008C06002002E008C8121F08C1002AFAD116
:1027700070477047002001E001C1121F002AFBD101
:1027800070472DE9F04116460F460446002503E048
:102790003946B047641C6D1C20780028F8D12846C3
:1027A000BDE8F08113B54FF6FF7301226946024878
:1027B000FFF700F800981CBDDC060020FEF72EF89D
:1027C000FFF7A4FCFFF730F9FFF74CF9FFF786F9A4
:1027D000012236493648FEF77BFFFFF7DBF9FFF7AA
:1027E000BBF94FF47A742046FDF7A6FDFFF7B4F964
:1027F000002107220846FFF79FFA08220021122035
:10280000FFF79AFA092200212420FFF795FA0A22FD
:1028100000213620FFF790FA0B2200214820FFF715
:102820008BFA0C2200215A20FFF786FA21A20321FD
:102830000020FFF7EDFA2046FDF77EFDFFF78CF94B
:10284000152201210020FFF777FA1622012112201C
:10285000FFF772FA172201212420FFF76DFA1822E0
:1028600001213620FFF768FA192201214820FFF7DD
:1028700063FA12A0FFF76EFF10232A220321002023
:10288000FFF782FA114C10235F2203210820FFF783
:102890007BFA2046FDF750FD10232022032108205B
:1028A000FFF772FA2046FDF747FDECE70400002031
:1028B000DC06002057656C636F6D650048656C6CC5
:1028C0006F576F726C64210A00000000E0930400EF
:1028D00000000000000000000102030406070809D0
:1028E000A0860100400D0300801A060000350C0090
:1028F00040420F0080841E0000093D0000127A0053
:102900000024F40000366E010048E801006CDC028F
:1029100000000000010203040000000000000000AD
:10292000002F000000000700070000147F147F1430
:1029300000242A7F2A1200626408132300364955B6
:10294000225000000503000000001C22410000008E
:1029500041221C000014083E08140008083E080824
:10296000000000A06000000808080808000060607F
:102970000000002010080402003E5149453E0000BE
:10298000427F4000004261514946002141454B31A0
:10299000001814127F10002745454539003C4A496C
:1029A00049300001710905030036494949360006DE
:1029B0004949291E00003636000000005636000046
:1029C00000081422410000141414141400004122C1
:1029D000140800020151090600324959513E007C99
:1029E0001211127C007F49494936003E4141412283
:1029F000007F4141221C007F49494941007F09096C
:102A00000901003E4149497A007F0808087F00001B
:102A1000417F4100002040413F01007F08142241D6
:102A2000007F40404040007F020C027F007F04088E
:102A3000107F003E4141413E007F09090906003EEA
:102A40004151215E007F0919294600464949493113
:102A50000001017F0101003F4040403F001F204036
:102A6000201F003F4038403F0063140814630007F4
:102A70000870080700615149454300007F4141004B
:102A800000552A552A55000041417F0000040201EB
:102A900002040040404040400000010204000020C9
:102AA00054545478007F4844443800384444442007
:102AB00000384444487F00385454541800087E09B4
:102AC00001020018A4A4A47C007F0804047800007C
:102AD000447D4000004080847D00007F1028440039
:102AE0000000417F4000007C04180478007C08044A
:102AF000047800384444443800FC24242418001886
:102B0000242418FC007C0804040800485454542071
:102B100000043F444020003C4040207C001C2040FA
:102B2000201C003C4030403C004428102844001C3D
:102B3000A0A0A07C004464544C4414141414141435
:102B40000000000000000000000000000000000085
:102B5000000000F80000000000000033300000001A
:102B600000100C06100C0600000000000000000021
:102B700040C07840C0784000043F04043F04040093
:102B8000007088FC08300000001820FF211E0000A3
:102B9000F008F000E018000000211C031E211E00B8
:102BA00000F00888700000001E212324192721103E
:102BB00010160E00000000000000000000000000E1
:102BC000000000E018040200000000071820400088
:102BD00000020418E0000000004020180700000078
:102BE000404080F0804040000202010F01020200DC
:102BF000000000F0000000000101011F01010100C0
:102C0000000000000000000080B070000000000024
:102C100000000000000000000001010101010101AD
:102C20000000000000000000003030000000000044
:102C30000000000080601804006018060100000019
:102C400000E010080810E000000F102020100F0016
:102C5000001010F8000000000020203F202000009D
:102C600000700808088870000030282422213000F5
:102C700000300888884830000018202020110E00FD
:102C80000000C02010F8000000070424243F2400A6
:102C900000F80888880808000019212020110E007B
:102CA00000E0108888180000000F112020110E008D
:102CB00000380808C83808000000003F0000000085
:102CC0000070880808887000001C222121221C0046
:102CD00000E010080810E0000000312222110F006F
:102CE000000000C0C0000000000000303000000004
:102CF0000000008000000000000080600000000074
:102D0000000080402010080000010204081020008C
:102D100040404040404040000404040404040400D7
:102D2000000810204080000000201008040201006C
:102D3000007048080808F00000000030360100006C
:102D4000C030C828E810E0000718272423140B001F
:102D50000000C038E0000000203C23020227382099
:102D600008F8888888700000203F202020110E007D
:102D7000C030080808083800071820202010080074
:102D800008F808080810E000203F202020100F005D
:102D900008F88888E8081000203F20202320180029
:102DA00008F88888E8081000203F20000300000091
:102DB000C03008080838000007182020221E020032
:102DC00008F808000008F808203F210101213F20F1
:102DD000000808F8080800000020203F202000001C
:102DE00000000808F8080800C08080807F0000000C
:102DF00008F888C028180800203F20012638200045
:102E000008F8080000000000203F202020203000AB
:102E100008F8F800F8F80800203F003F003F2000C5
:102E200008F830C00008F808203F200007183F00CD
:102E3000E01008080810E0000F10202020100F00FC
:102E400008F808080808F000203F210101010000EF
:102E5000E01008080810E0000F18242438504F0034
:102E600008F8888888887000203F2000030C3020F4
:102E700000708808080838000038202121221C0032
:102E8000180808F8080818000000203F200000007B
:102E900008F808000008F808001F202020201F0064
:102EA0000878880000C83808000007380E010000C4
:102EB000F80800F80008F800033C0700073C03008E
:102EC000081868808068180820302C03032C3020F4
:102ED0000838C800C83808000000203F2000000063
:102EE00010080808C83808002038262120201800BB
:102EF000000000FE020202000000007F404040008F
:102F0000000C30C000000000000000010638C000C6
:102F100000020202FE000000004040407F0000006E
:102F20000000040202020400000000000000000093
:102F30000000000000000000808080808080808091
:102F40000002020400000000000000000000000079
:102F500000008080808000000019242222223F206F
:102F600008F8008080000000003F112020110E00B2
:102F70000000008080800000000E11202020110041
:102F8000000000808088F800000E112020103F20F3
:102F90000000808080800000001F22222222130077
:102FA000008080F0888888180020203F20200000C2
:102FB0000000808080808000006B94949493600077
:102FC00008F8008080800000203F210000203F2082
:102FD00000809898000000000020203F2020000082
:102FE000000000809898000000C08080807F000072
:102FF00008F8000080808000203F24022D3020004F
:10300000000808F8000000000020203F20200000F9
:103010008080808080808000203F20003F20003F13
:103020008080008080800000203F210000203F2021
:103030000000808080800000001F202020201F00D2
:10304000808000808000000080FFA12020110E0001
:103050000000008080808000000E112020A0FF80F2
:10306000808080008080800020203F21200001009F
:1030700000008080808080000033242424241900F4
:10308000008080E0808000000000001F2020000001
:103090008080000000808000001F202020103F2042
:1030A000808080000080808000010E3008060100D2
:1030B00080800080008080800F300C030C300F0077
:1030C00000808000808080000020312E0E312000A2
:1030D000808080000080808080818E7018060100D2
:1030E00000808080808080000021302C22213000F0
:1030F00000000000807C020200000000003F404011
:1031000000000000FF00000000000000FF000000C1
:103110000002027C800000000040403F00000000F0
:10312000000601010202040400000000000000008B
:10313000000000000000000000000000000000008F
:10314000000000000000000000000000000000007F
:10315000000000000000000000000000000000006F
:10316000000000000000000000000000000000005F
:10317000000000000000E0E0E000000000000000AF
:103180000000000000000FFF0F0000000000000022
:103190000000000000000087800000000000000028
:1031A000000000000000030707030000000000000B
:1031B00000000080E0F8783880E0F87838000000FF
:1031C00000000403010000040301000000000000EF
:1031D00000000000000000000000000000000000EF
:1031E00000000000000000000000000000000000DF
:1031F0000000000000C0000000000000C00000004F
:1032000000181818F81F1818181818F81F181800A0
:10321000003030F03F3030303030F03F3030300070
:103220000000000700000000000007000000000090
:10323000000000000080C040F0404080800000009E
:103240000000001E3F70E0C0FF80000C0F0F000068
:103250000000E0E060000001FF03070EFCF8000042
:1032600000000103020404043F0406020100000000
:103270000080C040C080000000000080C00000004E
:103280007FFF800080FF7F00C0308E8380000000C1
:103290000000010181E01807FDFF010001FFFC00B3
:1032A00000000006030000000003060406030000FF
:1032B00000000080C04040C080000000000000000E
:1032C00000003FFFC040603F0F8080808080000092
:1032D000F8FE0301071E78E0C0C038070000800038
:1032E00000030306040404020103060404020100AF
:1032F00000003838F8F00000000000000000000076
:1033000000040602010000000000000000000000B0
:1033100000000000000000000000000000000000AD
:10332000000000000000000000000000000000009D
:103330000000000000000000000080C02010080015
:1033400000000000000000E0FC1E03000000000080
:10335000000000000000001FFFE00000000000006F
:1033600000000000000000000003070C10204000D7
:1033700000081020C08000000000000000000000D5
:103380000000000000031EFCE00000000000000040
:10339000000000000000E0FF1F000000000000002F
:1033A000004020100C070300000000000000000097
:1033B000000000000000000000000000000000000D
:1033C000000030707060C086FF86C0607070300092
:1033D0000000181C1C0C06C2FFC2060C1C1C1800A6
:1033E00000000000000000010100000000000000DB
:1033F00000000000000000000000000000000000CD
:103400000000000000000000FE00000000000000BE
:103410000000010101010101FF01010101010100A1
:10342000000000000000000000000000000000009C
:10343000000000000000000000000000000000008C
:10344000000000000000000000000000000000007C
:10345000000000000000000000000000000000006C
:103460000080C7473F1E0000000000000000000071
:10347000000000000000000000000000000000004C
:10348000000000000000000000000000000000003C
:10349000000101010101010101010101010101001E
:1034A000000000000000000000000000000000001C
:1034B000000000000000000000000000000000000C
:1034C00000000000000000000000000000000000FC
:1034D00000000080800000000000000000000000EC
:1034E00000000307070300000000000000000000C8
:1034F000000000000000000000000000C070180084
:103500000000000000000000C0701C070100000067
:1035100000000000C0701C07010000000000000057
:1035200000301C0701000000000000000000000047
:10353000000000000080C0404040C080000000004B
:103540000000F0FE0F0100000000000107FEF00087
:1035500000001FFFE000000000000000C0FF1F008F
:10356000000000000103060404040603010000003B
:103570000000000000000080C0000000000000000B
:1035800000000001010101FFFF0000000000000039
:1035900000000000000000FFFF000000000000002D
:1035A00000000004040406070706040404000000E9
:1035B00000000000804040404040C080800000008B
:1035C00000001E1900000000000000C17F3E000046
:1035D00000000080402010080402010000E000000C
:1035E0000000070606060606060606060701000096
:1035F000000000808040404040C08080000000000B
:1036000000000F0F0000808080C0613F1E0000009E
:103610000000E0E00000000000010103FE7800006F
:10362000000001030204040404040203010000007A
:1036300000000000000000000080C0C0000000008A
:10364000000000008060300C02FFFFFF000000005F
:1036500000101C121110101010FFFFFF10101000AE
:103660000000000000000808080F0F0F08080800FD
:1036700000000000C0C0C0C0C0C0C0C0C0C00000CA
:10368000000000F887402020202060C0800000005B
:103690000000E0610000000000000080FF7E0000EC
:1036A00000000102040404040404020301000000F9
:1036B00000000000000080C040404040800000004A
:1036C0000000E0FC0E818040404040C083030000C9
:1036D00000003FFFC30100000000000001FF7E006A
:1036E00000000000010306040404040203010000BA
:1036F000000000C0C0C0C0C0C0C0C0C0C0C000008A
:1037000000000F03010000008060180601000000A7
:10371000000000000000E0FC0300000000000000CA
:10372000000000000000070700000000000000008B
:103730000000000080C040404040C0800000000009
:1037400000001E3F71E0C080808080613F1E00004D
:1037500000F8FC06030100010103070EFCF800005D
:103760000000010302040404040402030100000039
:103770000000008080404040404080000000000089
:1037800000FCFF030000000000000083FEF80000C2
:103790000000818306040404040283F17F0F00000B
:1037A00000000303040404040603010000000000F9
:1037B0000000000000000000000000000000000009
:1037C000000000000000C0E0E0C0000000000000B9
:1037D00000000000000000818100000000000000E7
:1037E00000000000000003070703000000000000C5
:1037F00000000000000000000000000000000000C9
:1038000000000000000060600000000000000000F8
:1038100000000000000000000000000000000000A8
:10382000000000000000661E000000000000000014
:1038300000000000000000000000008040200000A8
:1038400000000080C06030180C060300000000007B
:1038500000000103060C183060C08000000000006A
:103860000000000000000000000001020408000049
:103870000000000000000000000000000000000048
:103880000020202020202020202020202020200078
:1038900000080808080808080808080808080800B8
:1038A0000000000000000000000000000000000018
:1038B0000000204080000000000000000000000028
:1038C000000000000003060C183060C080000000FB
:1038D000000000000080C06030180C0603010000EA
:1038E00000000804020100000000000000000000C9
:1038F000000000804040202020202040C0800000A8
:1039000000001E1F1C0000000080C040603F1F0020
:10391000000000000000009E810000000000000088
:103920000000000000000307070300000000000083
:10393000000000000080C040404040808000000047
:1039400000F0FC0E0380E0780C04FCFC0107F8009A
:10395000001F7FE0001F3F20100C3F20308C4300F1
:103960000000000103020404040404020301000037
:10397000000000000000C0C0E000000000000000E7
:1039800000000000C07C07013FFCC00000000000F8
:103990000000C07C0704040404077FFC80000000D2
:1039A00004060704040000000000040707040400E4
:1039B000004040C0C04040404040C0808000000007
:1039C000000000FFFF8080808080C0613F1F0000FA
:1039D000000000FFFF0000000000000103FEF800EF
:1039E000000404070704040404040406030100009F
:1039F000000000000080C0404040408080C00000C7
:103A000000E0FC0E030000000000000001030C00B9
:103A1000001FFFE0000000000000000000806000C8
:103A20000000000103020404040404020301000076
:103A3000004040C0C040404040C0808000000000C6
:103A4000000000FFFF000000000000010FFEF0007A
:103A5000000000FFFF00000000000000E07F1F00EA
:103A60000004040707040404040602030100000024
:103A7000004040C0C040404040404040C0C0000006
:103A8000000000FFFF8080808080C0F000030600FF
:103A9000000000FFFF000000000001070000C00060
:103AA00000040407070404040404040406070000D7
:103AB000004040C0C040404040404040C0C0C00006
:103AC000000000FFFF808080808080C0F00003063F
:103AD000000000FFFF0000000000000107000000E0
:103AE00000040407070404000000000000000000B8
:103AF000000000008080C04040408080C000000086
:103B000000E0FC0E0300000000000000030C0000B9
:103B1000001F7FE08000000000000404FCFC04049F
:103B20000000000103020404040404020101000077
:103B30004040C0C040400000004040C0C040400085
:103B40000000FFFF00000000000000FFFF00000079
:103B50000000FFFF01010101010101FFFF00000062
:103B60000404070704040000000404070704040019
:103B700000000040404040C0C040404040000000C5
:103B800000000000000000FFFF0000000000000037
:103B900000000000000000FFFF0000000000000027
:103BA00000000004040404070704040404000000E7
:103BB000000000000040404040C0C0404040400085
:103BC000000000000000000000FFFF0000000000F7
:103BD000000000000000000000FFFF0000000000E7
:103BE0000070F0F0808080C0603F1F000000000087
:103BF000004040C0C0404000000040C0C040400005
:103C0000000000FFFF0080E0F00C06010000000053
:103C1000000000FFFF030001071F7CF0C000000050
:103C20000004040707040400000004040707040458
:103C3000004040C0C0404000000000000000000004
:103C4000000000FFFF000000000000000000000076
:103C5000000000FFFF000000000000000000C000A6
:103C60000004040707040404040404040607000015
:103C70004040C0C0C0000000000000C0C0C04040C4
:103C80000000FF07FFF8800000C07C07FFFF000076
:103C90000000FF00000FFFF078070000FFFF0000AA
:103CA00004040704040001070000040407070404D7
:103CB0004040C0C0C000000000004040C040400084
:103CC0000000FF010F3FF8E080000000FF0000004F
:103CD0000000FF00000000030F3EF8E0FF000000BE
:103CE00004040704040000000000010707000000AE
:103CF00000000000808040404040808000000000C4
:103D000000F0FC0F01000000000000010FFCF000BB
:103D1000001F7FE00000000000000000C07F1F00C7
:103D20000000000103020404040402030100000077
:103D3000004040C0C0404040404040C080000000C3
:103D4000000000FFFF00000000000080C17F3E0077
:103D5000000000FFFF01010101010101000000005E
:103D60000004040707040400000000000000000035
:103D70000000000080804040404080800000000043
:103D800000F0FE0F010000000000000107FCF00041
:103D9000001FFFC08060202060C00000C0FF3F0007
:103DA000000000010302040404071F3A3130180028
:103DB000004040C0C04040404040C0808000000003
:103DC000000000FFFF8080808080C0613F1F0000F6
:103DD000000000FFFF000001073FFCE000000000C2
:103DE000000404070704040000000107070404009E
:103DF0000000000080C040404040408080C0000083
:103E000000001E7F61C0C0808080000001070000AC
:103E10000000608000000001010303070EFCF800B1
:103E20000000000703020404040404060301000068
:103E30000000C0C0404040C0C040404040C0000002
:103E400000060100000000FFFF0000000001070065
:103E500000000000000000FFFF0000000000000064
:103E60000000000000040407070404000000000034
:103E70004040C0C04040000000004040C040400002
:103E80000000FFFF0000000000000000FF00000035
:103E90000000FFFF0000000000000000FF00000025
:103EA00000000003020604040404020100000000F4
:103EB000004040C0C04000000000004040C0404002
:103EC000000000033FFCC000000000C03C030000F5
:103ED0000000000000031FFEE0E01E0300000000E1
:103EE00000000000000000010701000000000000C9
:103EF00040C0C040400040C0C040000040C0C04082
:103F00000003FFFC000000F7FFF00000E01F0000CE
:103F10000000017FFEF00F00017FFCF807000000A9
:103F20000000000007000000000007000000000083
:103F3000004040C0C0404000004040C04040000041
:103F4000000000010F3FF8E0E0180601000000004B
:103F500000000000C0300C030F3EF8C0000000005D
:103F60000004040704040000000004070704040020
:103F70000040C0C0C040400000004040C040400081
:103F8000000000031F7CF08000C0380E010000001C
:103F900000000000000003FFFE0100000000000020
:103FA00000000000000404070704040000000000F3
:103FB000000000C0C0404040404040C0C040000041
:103FC00000000601000000C0F07C1E070100000098
:103FD000000000C0F07C1F070100000000C00000CE
:103FE0000004070705040404040404060700000095
:103FF000000000000000F808080808080808000091
:10400000000000000000FF000000000000000000B1
:10401000000000000000FF000000000000000000A1
:104020000000000000003F20202020202020000071
:10403000000000E0C00000000000000000000000E0
:1040400000000000031E78C0000000000000000017
:1040500000000000000000030F78E00000000000F6
:1040600000000000000000000000010F3C600000A4
:10407000000008080808080808F800000000000010
:10408000000000000000000000FF00000000000031
:10409000000000000000000000FF00000000000021
:1040A0000000202020202020203F000000000000F1
:1040B00000000000402010180818182040000000E0
:1040C00000000000000000000000000000000000F0
:1040D00000000000000000000000000000000000E0
:1040E00000000000000000000000000000000000D0
:1040F00000000000000000000000000000000000C0
:1041000000000000000000000000000000000000AF
:10411000000000000000000000000000000000009F
:10412000808080808080808080808080808080808F
:10413000000000080808181020000000000000001F
:10414000000000000000000000000000000000006F
:10415000000000000000000000000000000000005F
:10416000000000000000000000000000000000004F
:10417000000000000000000000000000000000003F
:10418000000080C0602020202060C080000000006F
:1041900000C0F131180808040404FFFF000000000B
:1041A00000010306040404040202030704040300DC
:1041B000004040C0E00000000000000000000000DF
:1041C000000000FFFF80404020202060C0800000F1
:1041D000000000FFFF0100000000000000FF7F0062
:1041E00000000007030306040404040203010000A6
:1041F00000000000000000000000000000000000BF
:1042000000000080C0406020202060C080000000CE
:1042100000007EFF810000000000000303C00000DA
:104220000000000103020404040404020100000071
:104230000000000000000000004040C0E00000005E
:1042400000000080C0602020202040FFFF00000010
:1042500000007EFF01000000000000FFFF000000E2
:104260000000000103060404040201070302020027
:10427000000000000000000000000000000000003E
:1042800000000080C0402020202060C0800000008E
:1042900000007EFF88080808080808080F8E000044
:1042A00000000001030206040404040203000000ED
:1042B000000000000000008080C04040404080803E
:1042C000000020202020FEFF2020202020000303CB
:1042D000000000000000FFFF0000000000000000E0
:1042E00000000004040407070404040400000000A4
:1042F00000000000000000000000000000000000BE
:1043000000000000C0402020202060C0A0606000AD
:10431000000000C7FF3020202020301F0F000000C9
:104320000000387C43C38383838383C3467E3C0081
:10433000004040C0E000000000000000000000005D
:10434000000000FFFF80406020202060C08000004F
:10435000000000FFFF00000000000000FFFF000061
:104360000004040707040400000004040707040411
:1043700000000000000000C0C0C0000000000000FD
:1043800000000020202020E1F101000000000000DA
:1043900000000000000000FFFF000000000000001F
:1043A00000000004040404070704040404000000DF
:1043B0000000000000000000000000C0C0C00000BD
:1043C0000000000000000020202020E1F10100009A
:1043D0000000000000000000000000FFFF000000DF
:1043E00000000060E080808080C0603F1F0000000F
:1043F000004040C0E000000000000000000000009D
:10440000000000FFFF00000000A0E060202000008E
:10441000000000FFFF10080C3F71E080000000006A
:104420000004040707040400000005070704040053
:1044300000000040404040C0E000000000000000DC
:1044400000000000000000FFFF000000000000006E
:1044500000000000000000FFFF000000000000005E
:10446000000000040404040707040404040000001E
:10447000000000000000000000000000000000003C
:104480000020E0F0402020E0C0402020E0C00000FC
:104490000000FFFF000000FFFF000000FFFF000022
:1044A00000040707040004070704000407070400CA
:1044B00000000000000000000000000000000000FC
:1044C000002020E0F080404020202060C0800000DC
:1044D000000000FFFF00000000000000FFFF0000E0
:1044E0000004040707040400000004040707040490
:1044F00000000000000000000000000000000000BC
:1045000000000000C040602020206040C08000000B
:1045100000007EFF810000000000000081FF7E009F
:10452000000000010302040404040402030100006B
:10453000000000000000000000000000000000007B
:10454000002020E0F080402020202060C08000007B
:10455000000000FFFF0000000000000080FF7E0060
:10456000008080FFFF838204040404020301000032
:10457000000000000000000000000000000000003B
:1045800000000080C0402020202040C0C0E000008B
:1045900000007EFF0100000000000000FFFF00009F
:1045A000000000010306040404048283FFFF8080EE
:1045B00000000000000000000000000000000000FB
:1045C0000020202020F0F0008040602020E0C0008B
:1045D0000000000000FFFF030000000000000000DA
:1045E000000404040407070404040400000000009D
:1045F00000000000000000000000000000000000BB
:1046000000000080C060202020202040C0E000008A
:104610000000C003070C0C1818183030E0C100006F
:104620000000070702040404040404060301000058
:10463000000000000000000000000000000000007A
:10464000000020202030F8FF202020202000000043
:10465000000000000000FFFF0000000000800000DC
:104660000000000000000103060404040201000031
:10467000000000000000000000000000000000003A
:10468000002020E0F000000000002020E0F000000A
:10469000000000FFFF00000000000000FFFF00001E
:1046A00000000001030604040404020107030202DF
:1046B00000000000000000000000000000000000FA
:1046C000002020E0E0202000000020E0602000002A
:1046D000000000010F7FF8C0C03806010000000094
:1046E00000000000000003070100000000000000BF
:1046F00000000000000000000000000000000000BA
:104700002060E0E020002060E0E0200020E0602069
:104710000000033FFCC0F00F0FFFF0C03C0300009F
:104720000000000001070100000107010000000077
:104730000000000000000000000000000000000079
:1047400000002020E0E0E0200020A0602020000009
:104750000000000000C1671F3C7AE18000000000FB
:104760000004040607040000000405070604040012
:104770000000000000000000000000000000000039
:10478000002020E0E0202000000020E06020200049
:1047900000000000071FF8E000E01C03000000001C
:1047A0000000C0C08080403F070000000000000003
:1047B00000000000000000000000000000000000F9
:1047C0000000E0602020202020A0E0E02000000089
:1047D00000000100C0E0703C0E07010000C00000B6
:1047E000000006070705040404040406070100008E
:1047F00000000000000000000000E01008080000B9
:10480000000000000000000000807F0000000000A9
:1048100000000000000000010102FC000000000098
:10482000000000000000000000001F2040400000C9
:104830000000000000000000FF0000000000000079
:104840000000000000000000FF0000000000000069
:104850000000000000000000FF0000000000000059
:104860000000000000000000FF0000000000000049
:104870000000080810E00000000000000000000038
:1048800000000000007F8000000000000000000029
:104890000000000000FC0201010000000000000018
:1048A00000004040201F0000000000000000000049
:1048B00000180C020202040C102040404030180086
:1048C00000000000000000000000000000000000E8
:1048D00000000000000000000000000000000000D8
:1048E00000000000000000000000000000000000C8
:1048F0001049000800000020900600008C0200080B
:10490000E04B000890060020C8040000742700084F
:10491000800500093D000113F0100122FF0503127C
:10492000F00001130F040122FF0502110F1E1009F0
:104930004040405F5555557504125F0C0111210030
:104940000C11200F094989790909090F201F200836
:1049500000FE02424ACA4A030004114202FE20003D
:104960000E12FF40504C4340404F50505C40FFA05F
:1049700013F8880122FF050213F8C0131F08012253
:104980007F2003109F80E233808201040913E2A29A
:10499000928A86828080020005140040807F191070
:1049A0000C00002424A4FEA3220022CCAA05123E5F
:1049B0002407080601FF00013EF00604FF02020280
:1049C0009E357C539008C3F20840000F12044482C5
:1049D0007F01808040432C10284681A022F8E023EC
:1049E000090E0601103F00061B0080601F00011227
:1049F000E0B8200520C000FE0505116034048140A8
:104A000030F7363F8C051000100A20102CE72424C4
:104A100000FE92010512BF14070101017F2111C69A
:104A2000080610230C14224120100882BAAAAAAA50
:104A3000BA82C6040411FF0808C108108FFF080AD3
:104A40007C0A88FF0023613F2129336000040F1195
:104A500000008A52225A46404758245288040000D7
:104A60000F1041404F596949494969594F40410127
:104A7000805004808292010B11FE80800C0E124047
:104A80004022241048807F04081824226003450037
:104A900016083F080513090AC80800040B10102067
:104AA0001F80402116182641611D1C0329414D021B
:104AB000040D1101040C0F121030101F088848302B
:104AC0000E014080403F01046F301E40040611106B
:104AD0001E0C101281814121110D0301030D1121C2
:104AE00041818100041008FA02FE4020D8177F019E
:104AF000114220078047300F1067BF0C05120816BF
:104B000021400003080B12FE121212F212121E00B4
:104B1000F0A10C0D12100E013F0101FF11211F0029
:104B20000FC70332400133FF440105136059F900F8
:104B30000412020408E01F4042FA031006445454D1
:104B4000547F04061244A00C0B127F201000FF15A6
:104B5000151555954504040F1088681FC80810C81E
:104B60005452D1129408D0000C0D17091909FF05F1
:104B700000FF1292FF005F860408051501E21CE0A9
:104B80009E1C07804020100C034904080511030CEB
:104B9000304060FC10108C4404E40495A6442414B6
:104BA0008444940C80040C0D1202027A4141434269
:104BB0007E4242424360051C0A0484E45C44C40013
:104BC00002F245050211FE60280702017F10103F26
:104BD0006708041308488841030000000000000033
:040000050800018965
:00000001FF
